S016000052746F735F7363686564756C65722E7372656348
S11300000C942A000C9493050C94BD050C94E705FC
S11300100C9447000C9447000C94BD070C946B0798
S11300200C9494070C9442070C9447000C946606B5
S11300300C9447000C9447000C9447000C94470020
S11300400C9447000C9447000C9447000C94470010
S11300500C94470011241FBECFE5D8E0DEBFCDBF0E
S113006010E0A0E6B0E0ECEFF6E102C005900D92DE
S1130070AC39B107D9F721E0ACE9B0E001C01D9279
S1130080AB30B207E1F70E94DF030C947C0B0C94B5
S11300900000CF93C82F60E080E10E94DE0460E09E
S11300A081E10E94DE04C4FB662760F98CE10E94B2
S11300B0DE04C5FB662760F98DE10E94DE04C6FB01
S11300C0662760F987E10E94DE046C2F661F6627AD
S11300D0661F8FE10E94DE0461E082E10E94DE047B
S11300E08FE99FE00197F1F700C0000060E082E132
S11300F00E94DE048FE99FE00197F1F700C0000041
S11301006C2F61708CE10E94DE04C1FB662760F9EC
S11301108DE10E94DE04C2FB662760F987E10E943C
S1130120DE04C3FB662760F98FE10E94DE0461E010
S113013082E10E94DE048FE99FE00197F1F700C09D
S1130140000060E082E10E94DE048FE99FE00197F5
S1130150F1F700C00000CF910895CF93C82F61E05C
S113016080E10E94DE0460E081E10E94DE04C4FBC1
S1130170662760F98CE10E94DE04C5FB662760F9FE
S11301808DE10E94DE04C6FB662760F987E10E94C8
S1130190DE046C2F661F6627661F8FE10E94DE0453
S11301A061E082E10E94DE048FE99FE00197F1F7AC
S11301B000C0000060E082E10E94DE048FE99FE05D
S11301C00197F1F700C000006C2F61708CE10E9470
S11301D0DE04C1FB662760F98DE10E94DE04C2FBE8
S11301E0662760F987E10E94DE04C3FB662760F995
S11301F08FE10E94DE0461E082E10E94DE048FE967
S11302009FE00197F1F700C0000060E082E10E94E6
S1130210DE048FE99FE00197F1F700C00000CF9161
S113022008952FEF80E792E0215080409040E1F75D
S113023000C0000082E00E9449008FE99FE001971E
S1130240F1F700C0000088E20E9449008FE99FE0B6
S11302500197F1F700C000008CE00E9449008FE98B
S11302609FE00197F1F700C0000081E00E9449007F
S11302708FE39FE10197F1F700C0000086E00E9440
S113028049008FE99FE00197F1F700C0000008954D
S11302900F931F93CF938C01C0E003C00E94AD0065
S11302A0CF5FF801EC0FF11D80818111F7CFCF9161
S11302B01F910F9108952F923F924F925F926F92E8
S11302C07F928F929F92AF92BF92CF92DF92EF92E2
S11302D0FF920F931F93CF93DF93CDB7DEB7619750
S11302E00FB6F894DEBF0FBECDBF298B832E742EBC
S11302F0652E562E472E382E292EFE01319680E18A
S1130300DF011D928A95E9F72989832DA0E00E94D7
S1130310700B21F480E30E94AD0062C02989832D13
S1130320A0E00E94700B6CF40E94290B298B832E91
S1130330742E652E562E472E382E292E8DE20E94BD
S1130340AD00912C30C00F2EFAE0AF2EF02DB12C61
S1130350C12CD12CE12CF12C00E010E02989382D9E
S1130360472D562D652D742D832D922D0E94990AAB
S1130370E1E0F0E0EC0FFD1FE90DF11D205D2083AD
S113038093942989382D472D562D652D742D832D51
S1130390922D0E949B0A298B832E742E652E562E35
S11303A0472E382E292E2989382D472D562D652D77
S11303B0742D832D922DA0E00E94700B09F01CF681
S11303C00DC0E92DF0E0319781E090E08C0F9D1F86
S11303D0E80FF91F80810E94AD009A949110F1CF2B
S11303E061960FB6F894DEBF0FBECDBFDF91CF91FB
S11303F01F910F91FF90EF90DF90CF90BF90AF903F
S11304009F908F907F906F905F904F903F902F9030
S11304100895811105C080E8860F0E94490008955F
S1130420813021F480EC860F0E94490008951F93C7
S1130430CF93DF9380919D008F5F80939D00809187
S1130440A2009091A300892B81F486B597B590936F
S1130450A7008093A60081E00E94290781E090E034
S11304609093A3008093A2003DC08091A20090913C
S1130470A3000197B9F586B597B59093A50080932D
S1130480A40080E00E9429071092A3001092A20009
S113049010919C00C12FD0E06091A4007091A50040
S11304A08091A6009091A700681B790B80E090E0F2
S11304B00E948F0920E030E040E05FE30E94F509EC
S11304C00E946009CD51DF4F68831092A7001092FB
S11304D0A6001092A5001092A4001F5F10939C0028
S11304E01DBC1CBC80919D00803531F410929C0091
S11304F010929D000E943907DF91CF911F910895BA
S113050080E00E94290787E192E00E943D07089558
S113051060E08EE10E94E60360E08EE10E94DE046A
S11305208FE494E10197F1F700C0000061E08EE1EF
S11305300E94DE0490EA9A95F1F761E08EE10E9450
S1130540E6038EE10E9460058823D9F38EE10E94C0
S113055060058111FBCF0E943507089590E120E0EA
S113056030E026C0E92FF0E0ED51FF4F8081863462
S113057011F461E001C060E0220F331F262B983193
S113058050F480919F00482F50E0440F551F462B94
S113059040939F000CC088EE890F883040F440914E
S11305A09E0050E0440F551F462B40939E009F5FD2
S11305B09032C0F2C901089580E03CC0E82FF0E019
S11305C0ED51FF4F9081963411F461E001C060E079
S11305D0883050F49091A100492F50E0440F551FEA
S11305E0462B4093A10025C098EF980F983048F40B
S11305F02091A00030E0220F331F262B2093A0006F
S113060018C0883150F490919F00292F30E0220FB8
S1130610331F262B20939F000CC098EE980F983020
S113062040F420919E0030E0220F331F262B2093AC
S11306309E008F5F813210F22091A1008091A00072
S113064090E0820F911D20919F00820F911D2091B7
S11306509E00820F911D089590E220E030E00EC0CC
S1130660E92FF0E0ED51FF4F8081863411F481E0F1
S113067001C080E0220F331F282B9F5F983280F344
S1130680C90108958091AA009091AB0001969093BE
S1130690AB008093AA000A9768F01092AB00109206
S11306A0AA008091A8009091A90001969093A900B6
S11306B08093A8008091A8009091A900883E93405F
S11306C030F00E9430081092A9001092A8008CE922
S11306D082BF0895CF93DF93CDB7DEB72A970FB6C5
S11306E0F894DEBF0FBECDBF8AE0E2E6F0E0DE01A3
S11306F0119601900D928A95E1F740E062E080E066
S11307000E9410060E945D0682E493E00E94610646
S113071020E040E062E080E00E948F061DBC1CBC2B
S113072078940E94CE0460E088E00E94E60360E0D2
S11307308AE00E94E60360E088E00E94DE0460E054
S11307408AE00E94DE040E941101CE0101960E94FB
S113075048010E9480022A960FB6F894DEBF0FBEAD
S1130760CDBFDF91CF91089540E061E080E499E04E
S11307700E94080842E062E08DEF98E00E940808B9
S113078040E06FE081EB98E00E94080840E06CE3F1
S113079083E998E00E94080840E065E080E998E079
S11307A00E94080840E066E085EC98E00E94080892
S11307B040E06AE081E199E00E94080808950E94FF
S11307C06A030E94B4030E946D08FDCF982F96958A
S11307D0969596958770613009F490C018F0623050
S11307E0E9F10895913099F028F09230E9F09330CE
S11307F041F108954AB321E030E0B90102C0660F27
S1130800771F8A95E2F7CB01842B8ABB089547B3FF
S113081021E030E0B90102C0660F771F8A95E2F744
S1130820CB01842B87BB089544B321E030E0B901A8
S113083002C0660F771F8A95E2F7CB01842B84BB35
S1130840089541B321E030E0B90102C0660F771F7B
S11308508A95E2F7CB01842B81BB08959130C1F0D6
S113086028F0923039F19330B9F108954AB321E078
S113087030E0B90102C0660F771F8A95E2F7CB0119
S1130880962F909594239ABB9BB3892B8BBB089589
S113089047B321E030E0B90102C0660F771F8A95A3
S11308A0E2F7CB01962F9095942397BB98B3892BAD
S11308B088BB089544B321E030E0B90102C0660F5B
S11308C0771F8A95E2F7CB01962F9095942394BBDA
S11308D095B3892B85BB089541B321E030E0B9017C
S11308E002C0660F771F8A95E2F7CB01962F909589
S11308F0942391BB92B3892B82BB08959130C1F0AC
S113090028F0923039F19330B9F108954AB321E0D7
S113091030E0B90102C0660F771F8A95E2F7CB0178
S11309208095942F98239ABB9BB389238BBB0895FE
S113093047B321E030E0B90102C0660F771F8A9502
S1130940E2F7CB018095942F982397BB98B3892322
S113095088BB089544B321E030E0B90102C0660FBA
S1130960771F8A95E2F7CB018095942F982394BB47
S113097095B3892385BB089541B321E030E0B901E3
S113098002C0660F771F8A95E2F7CB018095942FFA
S1130990982391BB92B3892382BB0895CF93C0E07F
S11309A009C0EC2FF0E0E459FF4F60818C2F0E94C6
S11309B0E603CF5FC032A8F3CF910895982F9770C4
S11309C0869586958695813021F130F08230F1F15B
S11309D0833009F458C00895613069F44BB321E0C1
S11309E030E0B90102C0660F771F9A95E2F7CB0198
S11309F0842B8BBB08954BB321E030E0B90102C0D6
S1130A00660F771F9A95E2F7CB01809584238BBB01
S1130A100895613069F448B321E030E0B90102C0BF
S1130A20660F771F9A95E2F7CB01842B88BB089554
S1130A3048B321E030E0B90102C0660F771F9A95F0
S1130A40E2F7CB018095842388BB0895613069F473
S1130A5045B321E030E0B90102C0660F771F9A95D3
S1130A60E2F7CB01842B85BB089545B321E030E048
S1130A70B90102C0660F771F9A95E2F7CB01809502
S1130A80842385BB0895613069F442B321E030E0EA
S1130A90B90102C0660F771F9A95E2F7CB01842B48
S1130AA082BB089542B321E030E0B90102C0660F71
S1130AB0771F9A95E2F7CB018095842382BB089532
S1130AC0282F2770869586958695813079F028F0B1
S1130AD08230A9F08330E1F024C089B390E002C0F1
S1130AE0959587952A95E2F78170089586B390E0ED
S1130AF002C0959587952A95E2F78170089583B38E
S1130B0090E002C0959587952A95E2F78170089543
S1130B1080B390E002C0959587952A95E2F781709D
S1130B20089580E008951F920F920FB60F9211243A
S1130B302F933F934F935F936F937F938F939F93E1
S1130B40AF93BF93EF93FF937894E091B000F0914B
S1130B50B100309709F00995FF91EF91BF91AF91E2
S1130B609F918F917F916F915F914F913F912F91C1
S1130B700F900FBE0F901F90189578941F920F92AC
S1130B800FB60F9211242F933F934F935F936F935C
S1130B907F938F939F93AF93BF93EF93FF93E091D2
S1130BA0AE00F091AF00309709F00995FF91EF91F5
S1130BB0BF91AF919F918F917F916F915F914F9171
S1130BC03F912F910F900FBE0F901F9018951F9279
S1130BD00F920FB60F9211242F933F934F935F936D
S1130BE06F937F938F939F93AF93BF93EF93FF93F1
S1130BF0E091AC00F091AD00309709F00995FF91B8
S1130C00EF91BF91AF919F918F917F916F915F9180
S1130C104F913F912F910F900FBE0F901F901895F9
S1130C20813069F028F0823089F08330B1F01BC044
S1130C3083B78F7B83BF83B7877F83BF14C083B79A
S1130C40806483BF83B7877F83BF0DC083B78F7BE7
S1130C5083BF83B7886083BF06C083B7806483BFC4
S1130C6083B7886083BF83B7887F83BF83B7682BCC
S1130C7063BF413069F028F0423089F04330B1F06D
S1130C80089583B78F7E83BF83B78F7D83BF089515
S1130C9083B7806183BF83B78F7D83BF089583B794
S1130CA08F7E83BF83B7806283BF089583B78061DB
S1130CB083BF83B7806283BF089589B7816089BF8A
S1130CC008959093B3008093B20008951F920F92F9
S1130CD00FB60F9211242F933F934F935F936F930B
S1130CE07F938F939F93AF93BF93EF93FF93E09181
S1130CF0B200F091B300309709F00995FF91EF919C
S1130D00BF91AF919F918F917F916F915F914F911F
S1130D103F912F910F900FBE0F901F901895823026
S1130D2029F128F4882341F0813099F045C08330BB
S1130D3051F18430A9F140C08FB58E7F8FBD8FB53E
S1130D408D7F8FBD8EB5877F8EBD8EB58F7E8EBD18
S1130D5033C08FB58E7F8FBD8FB58D7F8FBD8EB520
S1130D6088608EBD8EB580618EBD26C08FB58E7FA6
S1130D708FBD8FB58D7F8FBD8EB588608EBD8EB5CE
S1130D808F7E8EBD19C08FB58E7F8FBD8FB582606B
S1130D908FBD8EB588608EBD8EB580618EBD0CC052
S1130DA08FB581608FBD8FB582608FBD8EB5886031
S1130DB08EBD8EB580618EBD413069F028F0423021
S1130DC089F04330B1F01BC08FB58F7B8FBD8FB5D9
S1130DD08F778FBD14C08FB580648FBD8FB58F772B
S1130DE08FBD0DC08FB58F7B8FBD8FB580688FBDD4
S1130DF006C08FB580648FBD8FB580688FBD2130EC
S1130E0069F028F0223089F02330B1F01BC08FB58F
S1130E108F7E8FBD8FB58F7D8FBD14C08FB58061E0
S1130E208FBD8FB58F7D8FBD0DC08FB58F7E8FBD6C
S1130E308FB580628FBD06C08FB580618FBD8FB5C1
S1130E4080628FBD8EB5887F8EBD8EB5682B6EBDDA
S1130E500895811104C08EB580648EBD08958130DB
S1130E6019F48EB58F7B8EBD089589B7806289BFD2
S1130E70089589B78F7D89BF08959093B5008093B5
S1130E80B40008951F920F920FB60F9211242F935E
S1130E903F934F935F936F937F938F939F93AF93FE
S1130EA0BF93EF93FF93E091BA00F091BB003097AA
S1130EB009F00995FF91EF91BF91AF919F918F91A7
S1130EC07F916F915F914F913F912F910F900FBE42
S1130ED00F901F9018951F920F920FB60F92112426
S1130EE02F933F934F935F936F937F938F939F932E
S1130EF0AF93BF93EF93FF93E091B800F091B900E3
S1130F00309709F00995FF91EF91BF91AF919F91AF
S1130F108F917F916F915F914F913F912F910F909E
S1130F200FBE0F901F9018951F920F920FB60F923D
S1130F3011242F933F934F935F936F937F938F93DA
S1130F409F93AF93BF93EF93FF93E091B600F0911B
S1130F50B700309709F00995FF91EF91BF91AF91D8
S1130F609F918F917F916F915F914F913F912F91BD
S1130F700F900FBE0F901F9018951F920F920FB6EF
S1130F800F9211242F933F934F935F936F937F930B
S1130F908F939F93AF93BF93EF93FF93E091B4002C
S1130FA0F091B500309709F00995FF91EF91BF9149
S1130FB0AF919F918F917F916F915F914F913F91ED
S1130FC02F910F900FBE0F901F901895DC0190E0A9
S1130FD01CC0292F30E0F901EE0FFF1FEE0FFF1F99
S1130FE0E20FF31FE354FF4F408151814A175B071F
S1130FF059F4F901EE0FFF1FEE0FFF1F2E0F3F1FD5
S1131000F901E354FF4F63839F5F973010F3089512
S11310109C019091BC009730E8F48FEF860F8634E2
S1131020D8F421153105D1F0E92FF0E0DF01AA0F42
S1131030BB1FAA0FBB1FEA0FFB1FE354FF4F3183F3
S113104020836283438381E084839F5F9093BC0009
S113105080E0089581E0089582E0089583E0089592
S113106020E036C0822F90E0FC01EE0FFF1FEE0F50
S1131070FF1FE80FF91FE354FF4F348142813417F7
S1131080D0F0FC01EE0FFF1FEE0FFF1FE80FF91F5A
S1131090E354FF4F4381423071F0FC01EE0FFF1F18
S11310A0EE0FFF1F8E0F9F1FFC01E354FF4F81E0E3
S11310B0838384830CC0FC01EE0FFF1FEE0FFF1F20
S11310C08E0F9F1FFC01E354FF4F3F5F34832F5F5C
S11310D08091BC00281730F208950F931F93CF938B
S11310E0C0E016C08C2F90E0FC01EE0FFF1FEE0F46
S11310F0FF1FE80FF91FE354FF4F2381213039F418
S11311008F010190F081E02D0995F8011382CF5FE2
S11311108091BC00C81730F3CF911F910F910895AF
S11311200E94880208950E94AE029C01ADECBCECC2
S11311300E948A0A969587959695879596958795A0
S1131140883248F460E08DEF98E00E94E60781E081
S11311508093E100089562E08DEF98E00E94E60735
S113116008950E94AE02883C910548F460E08DEF3A
S113117098E00E94E60781E08093E100089562E030
S11311808DEF98E00E94E6070895CF93DF930E94C5
S11311902C03EC010E94DC02C817D90741F460E07B
S11311A08DEF98E00E94E6071092E2000AC062E028
S11311B08DEF98E00E94E6078091E2008F5F8093B4
S11311C0E200DF91CF91089560E080E00E94DE04A8
S11311D061E081E00E94DE04089560E080E00E9406
S11311E0DE0460E081E00E94DE0462E08DEF98E0BE
S11311F00E94E6071092E10008958091E10088239F
S113120039F00E94E4088091E0008E5F8093E00052
S11312108091E0008B3020F00E94ED081092E000F5
S11312200895CF93DF9360E081E00E9409028CE887
S113123090E00E94480160E081E00E94090283E995
S113124090E00E9448010E94AE02282F392F40E00E
S113125050E060E070E080E090E00E945B018091EB
S1131260E200823050F01092E20060E081E00E94DF
S1131270090286E990E00E944801DF91CF91089528
S1131280CF93DF936AE080E00E94090280916000BE
S113129090916100282F392F40E050E060E070E029
S11312A080E090E00E945B01809160009091610079
S11312B001969093610080936000DF91CF9108952F
S11312C00E94D40988F09F5798F0B92F9927B751F5
S11312D0B0F0E1F0660F771F881F991F1AF0BA95D6
S11312E0C9F714C0B13091F00E94EE09B1E008953D
S11312F00C94EE09672F782F8827B85F39F0B93F2F
S1131300CCF3869577956795B395D9F73EF4909588
S11313108095709561957F4F8F4F9F4F0895E89406
S113132009C097FB3EF490958095709561957F4F29
S11313308F4F9F4F9923A9F0F92F96E9BB279395D7
S1131340F695879577956795B795F111F8CFFAF4E7
S1131350BB0F11F460FF1BC06F5F7F4F8F4F9F4F18
S113136016C0882311F096E911C0772321F09EE876
S1131370872F762F05C0662371F096E8862F70E0DC
S113138060E02AF09A95660F771F881FDAF7880FB6
S11313909695879597F9089557FD9058440F551FD2
S11313A059F05F3F71F04795880F97FB991F61F0E3
S11313B09F3F79F087950895121613061406551F5A
S11313C0F2CF4695F1DF08C0161617061806991FC6
S11313D0F1CF86957105610508940895E894BB27BB
S11313E066277727CB0197F908950E94080A0C9481
S11313F0790A0E946B0A38F00E94720A20F0952341
S113140011F00C94620A0C94680A11240C94EF09EC
S11314100E94CC0970F3959FC1F3950F50E0551FBE
S1131420629FF001729FBB27F00DB11D639FAA2735
S1131430F00DB11DAA1F649F6627B00DA11D661F84
S1131440829F2227B00DA11D621F739FB00DA11DA5
S1131450621F839FA00D611D221F749F3327A00D5F
S1131460611D231F849F600D211D822F762F6A2FFB
S113147011249F5750409AF0F1F088234AF0EE0F60
S1131480FF1FBB1F661F771F881F91505040A9F78D
S11314909E3F510580F00C94620A0C94EF095F3F63
S11314A0E4F3983ED4F3869577956795B795F795C9
S11314B0E7959F5FC1F7FE2B880F911D9695879541
S11314C097F9089597F99F6780E870E060E00895C0
S11314D09FEF80EC089500240A9416161706180648
S11314E00906089500240A94121613061406050624
S11314F00895092E0394000C11F4882352F0BB0FB5
S113150040F4BF2B11F460FF04C06F5F7F4F8F4F17
S11315109F4F0895A29FB001B39FC001A39F700D78
S1131520811D1124911DB29F700D811D1124911DE7
S11315300895689401C0E894F92FF12B12F00C94EB
S1131540CD0AA0E0B0E0E7EAFAE00C943F0B092EE4
S1131550059422F40E94290B112392F4F0E80F263B
S1131560FFEFE094F09400951095B094C094D0945B
S1131570A194BF0ACF0ADF0AEF0AFF0A0F0B1F0B61
S11315800E94D80A07FC0E94290BCDB7DEB7ECE015
S11315900C945B0B689401C0E8948F929F92CF9354
S11315A0DF930E94D80ADF91CF919F908F90089586
S11315B088249924F401E401B0E49F93AA279A159E
S11315C08B049C04ED05FE05CF05D007A10798F414
S11315D0AD2FDC2FCF2FFE2FE92D982C892E982F9D
S11315E0872F762F652F542F432F322F2227B85061
S11315F031F7BF9127C01B2EBF91BB27220F331F8A
S1131600441F551F661F771F881F991F881C991C2C
S1131610EE1FFF1FCC1FDD1FAA1FBB1F8A149B04D4
S1131620EC05FD05CE05DF05A007B10748F08A18D3
S11316309B08EC09FD09CE09DF09A00BB10B216061
S11316401A94E1F62EF49401AF01BE01CD01000C11
S11316500895609570958095909530954095509536
S113166021953F4F4F4F5F4F6F4F7F4F8F4F9F4F8E
S113167008952F923F924F925F926F927F928F9232
S11316809F92AF92BF92CF92DF92EF92FF920F930D
S11316901F93CF93DF93CDB7DEB7CA1BDB0B0FB617
S11316A0F894DEBF0FBECDBF09942A8839884888D4
S11316B05F846E847D848C849B84AA84B984C8846A
S11316C0DF80EE80FD800C811B81AA81B981CE0F61
S11316D0D11D0FB6F894DEBF0FBECDBFED01089546
S11316E00024A7FD00942A17300540055005600525
S10F16F07005800590050895F894FFCF64
S11316FC01005365636F6E64733A200000000201AD
S113170C00000000000000000000000000000000C9
S113171C0000000002020202000000002020202031
S10F172C202000483D004572726F7200DE
S9030000FC
